{
  "_format": "hh-sol-artifact-1",
  "contractName": "DecentralizedMarketplace",
  "sourceName": "contracts/DecentralizedMarketplace.sol",
  "abi": [
    {
      "anonymous": false,
      "inputs": [
        {
          "indexed": false,
          "internalType": "uint256",
          "name": "itemId",
          "type": "uint256"
        },
        {
          "indexed": false,
          "internalType": "address",
          "name": "vendorAddress",
          "type": "address"
        },
        {
          "indexed": false,
          "internalType": "string",
          "name": "name",
          "type": "string"
        },
        {
          "indexed": false,
          "internalType": "uint256",
          "name": "price",
          "type": "uint256"
        }
      ],
      "name": "ItemListed",
      "type": "event"
    },
    {
      "anonymous": false,
      "inputs": [
        {
          "indexed": false,
          "internalType": "uint256",
          "name": "itemId",
          "type": "uint256"
        },
        {
          "indexed": false,
          "internalType": "address",
          "name": "buyer",
          "type": "address"
        },
        {
          "indexed": false,
          "internalType": "uint256",
          "name": "price",
          "type": "uint256"
        }
      ],
      "name": "ItemPurchased",
      "type": "event"
    },
    {
      "anonymous": false,
      "inputs": [
        {
          "indexed": false,
          "internalType": "address",
          "name": "vendorAddress",
          "type": "address"
        },
        {
          "indexed": false,
          "internalType": "string",
          "name": "name",
          "type": "string"
        },
        {
          "indexed": false,
          "internalType": "string",
          "name": "email",
          "type": "string"
        }
      ],
      "name": "VendorRegistered",
      "type": "event"
    },
    {
      "inputs": [
        {
          "internalType": "string",
          "name": "name",
          "type": "string"
        },
        {
          "internalType": "string",
          "name": "discription",
          "type": "string"
        },
        {
          "internalType": "uint256",
          "name": "price",
          "type": "uint256"
        }
      ],
      "name": "ListItem",
      "outputs": [],
      "stateMutability": "nonpayable",
      "type": "function"
    },
    {
      "inputs": [
        {
          "internalType": "uint256",
          "name": "itemId",
          "type": "uint256"
        }
      ],
      "name": "buyItem",
      "outputs": [],
      "stateMutability": "payable",
      "type": "function"
    },
    {
      "inputs": [],
      "name": "getAllItems",
      "outputs": [
        {
          "components": [
            {
              "internalType": "uint256",
              "name": "itemId",
              "type": "uint256"
            },
            {
              "internalType": "address payable",
              "name": "vendorAddress",
              "type": "address"
            },
            {
              "internalType": "string",
              "name": "name",
              "type": "string"
            },
            {
              "internalType": "string",
              "name": "discription",
              "type": "string"
            },
            {
              "internalType": "uint256",
              "name": "priceInwei",
              "type": "uint256"
            },
            {
              "internalType": "bool",
              "name": "isSold",
              "type": "bool"
            }
          ],
          "internalType": "struct DecentralizedMarketplace.Item[]",
          "name": "",
          "type": "tuple[]"
        }
      ],
      "stateMutability": "view",
      "type": "function"
    },
    {
      "inputs": [],
      "name": "getAllVendors",
      "outputs": [
        {
          "components": [
            {
              "internalType": "address payable",
              "name": "vendorAddress",
              "type": "address"
            },
            {
              "internalType": "string",
              "name": "name",
              "type": "string"
            },
            {
              "internalType": "string",
              "name": "email",
              "type": "string"
            },
            {
              "internalType": "uint256[]",
              "name": "itemIds",
              "type": "uint256[]"
            }
          ],
          "internalType": "struct DecentralizedMarketplace.Vendor[]",
          "name": "",
          "type": "tuple[]"
        }
      ],
      "stateMutability": "view",
      "type": "function"
    },
    {
      "inputs": [
        {
          "internalType": "uint256",
          "name": "itemId",
          "type": "uint256"
        }
      ],
      "name": "getItem",
      "outputs": [
        {
          "internalType": "uint256",
          "name": "",
          "type": "uint256"
        },
        {
          "internalType": "address",
          "name": "",
          "type": "address"
        },
        {
          "internalType": "string",
          "name": "",
          "type": "string"
        },
        {
          "internalType": "string",
          "name": "",
          "type": "string"
        },
        {
          "internalType": "uint256",
          "name": "",
          "type": "uint256"
        },
        {
          "internalType": "bool",
          "name": "",
          "type": "bool"
        }
      ],
      "stateMutability": "view",
      "type": "function"
    },
    {
      "inputs": [
        {
          "internalType": "address",
          "name": "vendorAddress",
          "type": "address"
        }
      ],
      "name": "getVendor",
      "outputs": [
        {
          "internalType": "string",
          "name": "name",
          "type": "string"
        },
        {
          "internalType": "string",
          "name": "email",
          "type": "string"
        },
        {
          "internalType": "uint256[]",
          "name": "itemIds",
          "type": "uint256[]"
        }
      ],
      "stateMutability": "view",
      "type": "function"
    },
    {
      "inputs": [],
      "name": "itemCount",
      "outputs": [
        {
          "internalType": "uint256",
          "name": "",
          "type": "uint256"
        }
      ],
      "stateMutability": "view",
      "type": "function"
    },
    {
      "inputs": [
        {
          "internalType": "uint256",
          "name": "",
          "type": "uint256"
        }
      ],
      "name": "itemIndex",
      "outputs": [
        {
          "internalType": "uint256",
          "name": "",
          "type": "uint256"
        }
      ],
      "stateMutability": "view",
      "type": "function"
    },
    {
      "inputs": [
        {
          "internalType": "uint256",
          "name": "",
          "type": "uint256"
        }
      ],
      "name": "items",
      "outputs": [
        {
          "internalType": "uint256",
          "name": "itemId",
          "type": "uint256"
        },
        {
          "internalType": "address payable",
          "name": "vendorAddress",
          "type": "address"
        },
        {
          "internalType": "string",
          "name": "name",
          "type": "string"
        },
        {
          "internalType": "string",
          "name": "discription",
          "type": "string"
        },
        {
          "internalType": "uint256",
          "name": "priceInwei",
          "type": "uint256"
        },
        {
          "internalType": "bool",
          "name": "isSold",
          "type": "bool"
        }
      ],
      "stateMutability": "view",
      "type": "function"
    },
    {
      "inputs": [
        {
          "internalType": "string",
          "name": "name",
          "type": "string"
        },
        {
          "internalType": "string",
          "name": "email",
          "type": "string"
        }
      ],
      "name": "registerVendor",
      "outputs": [],
      "stateMutability": "nonpayable",
      "type": "function"
    },
    {
      "inputs": [],
      "name": "vendorCount",
      "outputs": [
        {
          "internalType": "uint256",
          "name": "",
          "type": "uint256"
        }
      ],
      "stateMutability": "view",
      "type": "function"
    },
    {
      "inputs": [
        {
          "internalType": "address",
          "name": "",
          "type": "address"
        }
      ],
      "name": "vendorIndex",
      "outputs": [
        {
          "internalType": "uint256",
          "name": "",
          "type": "uint256"
        }
      ],
      "stateMutability": "view",
      "type": "function"
    },
    {
      "inputs": [
        {
          "internalType": "uint256",
          "name": "",
          "type": "uint256"
        }
      ],
      "name": "vendors",
      "outputs": [
        {
          "internalType": "address payable",
          "name": "vendorAddress",
          "type": "address"
        },
        {
          "internalType": "string",
          "name": "name",
          "type": "string"
        },
        {
          "internalType": "string",
          "name": "email",
          "type": "string"
        }
      ],
      "stateMutability": "view",
      "type": "function"
    }
  ],
  "bytecode": "0x608060405234801561001057600080fd5b50612bc5806100206000396000f3fe6080604052600436106100c25760003560e01c80638858287b1161007f578063ae6bcf9211610059578063ae6bcf9214610299578063bfb231d2146102d6578063d85b7e9a14610318578063e7fb74c714610341576100c2565b80638858287b146101f257806392647eab1461021d578063a08d986d1461025a576100c2565b80630bc0f7d3146100c75780633129e773146101065780634ba1d6aa146101485780635e0b421e146101735780636bfb0d011461019e57806374e8807d146101c9575b600080fd5b3480156100d357600080fd5b506100ee60048036038101906100e99190611869565b61035d565b6040516100fd939291906119ee565b60405180910390f35b34801561011257600080fd5b5061012d60048036038101906101289190611a66565b61059f565b60405161013f96959493929190611acc565b60405180910390f35b34801561015457600080fd5b5061015d6107a5565b60405161016a9190611d07565b60405180910390f35b34801561017f57600080fd5b506101886109ad565b6040516101959190611ecb565b60405180910390f35b3480156101aa57600080fd5b506101b3610bde565b6040516101c09190611eed565b60405180910390f35b3480156101d557600080fd5b506101f060048036038101906101eb919061203d565b610be4565b005b3480156101fe57600080fd5b50610207610ec8565b6040516102149190611eed565b60405180910390f35b34801561022957600080fd5b50610244600480360381019061023f9190611a66565b610ece565b6040516102519190611eed565b60405180910390f35b34801561026657600080fd5b50610281600480360381019061027c9190611a66565b610ee6565b604051610290939291906120c4565b60405180910390f35b3480156102a557600080fd5b506102c060048036038101906102bb9190611869565b611050565b6040516102cd9190611eed565b60405180910390f35b3480156102e257600080fd5b506102fd60048036038101906102f89190611a66565b611068565b60405161030f96959493929190612109565b60405180910390f35b34801561032457600080fd5b5061033f600480360381019061033a9190612178565b6111f1565b005b61035b60048036038101906103569190611a66565b611592565b005b60608060606000600260008673ffffffffffffffffffffffffffffffffffffffff1673ffffffffffffffffffffffffffffffffffffffff168152602001908152602001600020549050600081036103e9576040517f08c379a00000000000000000000000000000000000000000000000000000000081526004016103e09061224f565b60405180910390fd5b6000806001836103f9919061229e565b8154811061040a576104096122d2565b5b9060005260206000209060040201905080600101816002018260030182805461043290612330565b80601f016020809104026020016040519081016040528092919081815260200182805461045e90612330565b80156104ab5780601f10610480576101008083540402835291602001916104ab565b820191906000526020600020905b81548152906001019060200180831161048e57829003601f168201915b505050505092508180546104be90612330565b80601f01602080910402602001604051908101604052809291908181526020018280546104ea90612330565b80156105375780601f1061050c57610100808354040283529160200191610537565b820191906000526020600020905b81548152906001019060200180831161051a57829003601f168201915b505050505091508080548060200260200160405190810160405280929190818152602001828054801561058957602002820191906000526020600020905b815481526020019060010190808311610575575b5050505050905094509450945050509193909250565b6000806060806000806000600360008981526020019081526020016000205490506001805490508110610607576040517f08c379a00000000000000000000000000000000000000000000000000000000081526004016105fe906123ad565b60405180910390fd5b60006001828154811061061d5761061c6122d2565b5b9060005260206000209060060201905080600001548160010160009054906101000a900473ffffffffffffffffffffffffffffffffffffffff16826002018360030184600401548560050160009054906101000a900460ff1683805461068290612330565b80601f01602080910402602001604051908101604052809291908181526020018280546106ae90612330565b80156106fb5780601f106106d0576101008083540402835291602001916106fb565b820191906000526020600020905b8154815290600101906020018083116106de57829003601f168201915b5050505050935082805461070e90612330565b80601f016020809104026020016040519081016040528092919081815260200182805461073a90612330565b80156107875780601f1061075c57610100808354040283529160200191610787565b820191906000526020600020905b81548152906001019060200180831161076a57829003601f168201915b50505050509250975097509750975097509750505091939550919395565b60606001805480602002602001604051908101604052809291908181526020016000905b828210156109a457838290600052602060002090600602016040518060c0016040529081600082015481526020016001820160009054906101000a900473ffffffffffffffffffffffffffffffffffffffff1673ffffffffffffffffffffffffffffffffffffffff1673ffffffffffffffffffffffffffffffffffffffff16815260200160028201805461085c90612330565b80601f016020809104026020016040519081016040528092919081815260200182805461088890612330565b80156108d55780601f106108aa576101008083540402835291602001916108d5565b820191906000526020600020905b8154815290600101906020018083116108b857829003601f168201915b505050505081526020016003820180546108ee90612330565b80601f016020809104026020016040519081016040528092919081815260200182805461091a90612330565b80156109675780601f1061093c57610100808354040283529160200191610967565b820191906000526020600020905b81548152906001019060200180831161094a57829003601f168201915b50505050508152602001600482015481526020016005820160009054906101000a900460ff161515151581525050815260200190600101906107c9565b50505050905090565b60606000805480602002602001604051908101604052809291908181526020016000905b82821015610bd557838290600052602060002090600402016040518060800160405290816000820160009054906101000a900473ffffffffffffffffffffffffffffffffffffffff1673ffffffffffffffffffffffffffffffffffffffff1673ffffffffffffffffffffffffffffffffffffffff168152602001600182018054610a5a90612330565b80601f0160208091040260200160405190810160405280929190818152602001828054610a8690612330565b8015610ad35780601f10610aa857610100808354040283529160200191610ad3565b820191906000526020600020905b815481529060010190602001808311610ab657829003601f168201915b50505050508152602001600282018054610aec90612330565b80601f0160208091040260200160405190810160405280929190818152602001828054610b1890612330565b8015610b655780601f10610b3a57610100808354040283529160200191610b65565b820191906000526020600020905b815481529060010190602001808311610b4857829003601f168201915b5050505050815260200160038201805480602002602001604051908101604052809291908181526020018280548015610bbd57602002820191906000526020600020905b815481526020019060010190808311610ba9575b505050505081525050815260200190600101906109d1565b50505050905090565b60045481565b6000825111610c28576040517f08c379a0000000000000000000000000000000000000000000000000000000008152600401610c1f90612419565b60405180910390fd5b6000815111610c6c576040517f08c379a0000000000000000000000000000000000000000000000000000000008152600401610c6390612485565b60405180910390fd5b6000600260003373ffffffffffffffffffffffffffffffffffffffff1673ffffffffffffffffffffffffffffffffffffffff1681526020019081526020016000205414610cee576040517f08c379a0000000000000000000000000000000000000000000000000000000008152600401610ce5906124f1565b60405180910390fd5b60056000815480929190610d0190612511565b9190505550600060405180608001604052803373ffffffffffffffffffffffffffffffffffffffff168152602001848152602001838152602001600067ffffffffffffffff811115610d5657610d55611f12565b5b604051908082528060200260200182016040528015610d845781602001602082028036833780820191505090505b50815250908060018154018082558091505060019003906000526020600020906004020160009091909190915060008201518160000160006101000a81548173ffffffffffffffffffffffffffffffffffffffff021916908373ffffffffffffffffffffffffffffffffffffffff1602179055506020820151816001019081610e0d9190612705565b506040820151816002019081610e239190612705565b506060820151816003019080519060200190610e4092919061178d565b505050600554600260003373ffffffffffffffffffffffffffffffffffffffff1673ffffffffffffffffffffffffffffffffffffffff168152602001908152602001600020819055507f6a8800d7464c3933e9f1241684cbae034394a3a73e84fa164a882037ffbe2aea338383604051610ebc939291906127d7565b60405180910390a15050565b60055481565b60036020528060005260406000206000915090505481565b60008181548110610ef657600080fd5b90600052602060002090600402016000915090508060000160009054906101000a900473ffffffffffffffffffffffffffffffffffffffff1690806001018054610f3f90612330565b80601f0160208091040260200160405190810160405280929190818152602001828054610f6b90612330565b8015610fb85780601f10610f8d57610100808354040283529160200191610fb8565b820191906000526020600020905b815481529060010190602001808311610f9b57829003601f168201915b505050505090806002018054610fcd90612330565b80601f0160208091040260200160405190810160405280929190818152602001828054610ff990612330565b80156110465780601f1061101b57610100808354040283529160200191611046565b820191906000526020600020905b81548152906001019060200180831161102957829003601f168201915b5050505050905083565b60026020528060005260406000206000915090505481565b6001818154811061107857600080fd5b90600052602060002090600602016000915090508060000154908060010160009054906101000a900473ffffffffffffffffffffffffffffffffffffffff16908060020180546110c790612330565b80601f01602080910402602001604051908101604052809291908181526020018280546110f390612330565b80156111405780601f1061111557610100808354040283529160200191611140565b820191906000526020600020905b81548152906001019060200180831161112357829003601f168201915b50505050509080600301805461115590612330565b80601f016020809104026020016040519081016040528092919081815260200182805461118190612330565b80156111ce5780601f106111a3576101008083540402835291602001916111ce565b820191906000526020600020905b8154815290600101906020018083116111b157829003601f168201915b5050505050908060040154908060050160009054906101000a900460ff16905086565b6000600260003373ffffffffffffffffffffffffffffffffffffffff1673ffffffffffffffffffffffffffffffffffffffff1681526020019081526020016000205403611273576040517f08c379a000000000000000000000000000000000000000000000000000000000815260040161126a9061288e565b60405180910390fd5b60008351116112b7576040517f08c379a00000000000000000000000000000000000000000000000000000000081526004016112ae90612419565b60405180910390fd5b60008251116112fb576040517f08c379a00000000000000000000000000000000000000000000000000000000081526004016112f2906128fa565b60405180910390fd5b6000811161133e576040517f08c379a000000000000000000000000000000000000000000000000000000000815260040161133590612966565b60405180910390fd5b6000670de0b6b3a7640000826113549190612986565b90506004600081548092919061136990612511565b919050555060016040518060c0016040528060045481526020013373ffffffffffffffffffffffffffffffffffffffff1681526020018681526020018581526020018381526020016000151581525090806001815401808255809150506001900390600052602060002090600602016000909190919091506000820151816000015560208201518160010160006101000a81548173ffffffffffffffffffffffffffffffffffffffff021916908373ffffffffffffffffffffffffffffffffffffffff16021790555060408201518160020190816114479190612705565b50606082015181600301908161145d9190612705565b506080820151816004015560a08201518160050160006101000a81548160ff021916908315150217905550505060006001600260003373ffffffffffffffffffffffffffffffffffffffff1673ffffffffffffffffffffffffffffffffffffffff168152602001908152602001600020546114d8919061229e565b815481106114e9576114e86122d2565b5b9060005260206000209060040201600301600454908060018154018082558091505060019003906000526020600020016000909190919091505560018080549050611534919061229e565b600360006004548152602001908152602001600020819055507f4e3807e76e8c2a7b6547b6189eba5d3dc4fe2bc48c057e8ec545ec13be8063c560045433868460405161158494939291906129c8565b60405180910390a150505050565b6000600360008381526020019081526020016000205490506000600182815481106115c0576115bf6122d2565b5b90600052602060002090600602019050600081600001541180156115ea5750600454816000015411155b611629576040517f08c379a000000000000000000000000000000000000000000000000000000000815260040161162090612a60565b60405180910390fd5b8060050160009054906101000a900460ff161561167b576040517f08c379a000000000000000000000000000000000000000000000000000000000815260040161167290612acc565b60405180910390fd5b806004015434146116c1576040517f08c379a00000000000000000000000000000000000000000000000000000000081526004016116b890612b38565b60405180910390fd5b8060010160009054906101000a900473ffffffffffffffffffffffffffffffffffffffff1673ffffffffffffffffffffffffffffffffffffffff166108fc349081150290604051600060405180830381858888f1935050505015801561172b573d6000803e3d6000fd5b5060018160050160006101000a81548160ff0219169083151502179055507f78a0660bbda86d17037943644187f6f1f73f2f20a3240bf4cf4a56c2a96bcf848333836004015460405161178093929190612b58565b60405180910390a1505050565b8280548282559060005260206000209081019282156117c9579160200282015b828111156117c85782518255916020019190600101906117ad565b5b5090506117d691906117da565b5090565b5b808211156117f35760008160009055506001016117db565b5090565b6000604051905090565b600080fd5b600080fd5b600073ffffffffffffffffffffffffffffffffffffffff82169050919050565b60006118368261180b565b9050919050565b6118468161182b565b811461185157600080fd5b50565b6000813590506118638161183d565b92915050565b60006020828403121561187f5761187e611801565b5b600061188d84828501611854565b91505092915050565b600081519050919050565b600082825260208201905092915050565b60005b838110156118d05780820151818401526020810190506118b5565b60008484015250505050565b6000601f19601f8301169050919050565b60006118f882611896565b61190281856118a1565b93506119128185602086016118b2565b61191b816118dc565b840191505092915050565b600081519050919050565b600082825260208201905092915050565b6000819050602082019050919050565b6000819050919050565b61196581611952565b82525050565b6000611977838361195c565b60208301905092915050565b6000602082019050919050565b600061199b82611926565b6119a58185611931565b93506119b083611942565b8060005b838110156119e15781516119c8888261196b565b97506119d383611983565b9250506001810190506119b4565b5085935050505092915050565b60006060820190508181036000830152611a0881866118ed565b90508181036020830152611a1c81856118ed565b90508181036040830152611a308184611990565b9050949350505050565b611a4381611952565b8114611a4e57600080fd5b50565b600081359050611a6081611a3a565b92915050565b600060208284031215611a7c57611a7b611801565b5b6000611a8a84828501611a51565b91505092915050565b611a9c81611952565b82525050565b611aab8161182b565b82525050565b60008115159050919050565b611ac681611ab1565b82525050565b600060c082019050611ae16000830189611a93565b611aee6020830188611aa2565b8181036040830152611b0081876118ed565b90508181036060830152611b1481866118ed565b9050611b236080830185611a93565b611b3060a0830184611abd565b979650505050505050565b600081519050919050565b600082825260208201905092915050565b6000819050602082019050919050565b6000611b728261180b565b9050919050565b611b8281611b67565b82525050565b600082825260208201905092915050565b6000611ba482611896565b611bae8185611b88565b9350611bbe8185602086016118b2565b611bc7816118dc565b840191505092915050565b611bdb81611ab1565b82525050565b600060c083016000830151611bf9600086018261195c565b506020830151611c0c6020860182611b79565b5060408301518482036040860152611c248282611b99565b91505060608301518482036060860152611c3e8282611b99565b9150506080830151611c53608086018261195c565b5060a0830151611c6660a0860182611bd2565b508091505092915050565b6000611c7d8383611be1565b905092915050565b6000602082019050919050565b6000611c9d82611b3b565b611ca78185611b46565b935083602082028501611cb985611b57565b8060005b85811015611cf55784840389528151611cd68582611c71565b9450611ce183611c85565b925060208a01995050600181019050611cbd565b50829750879550505050505092915050565b60006020820190508181036000830152611d218184611c92565b905092915050565b600081519050919050565b600082825260208201905092915050565b6000819050602082019050919050565b600082825260208201905092915050565b6000611d7182611926565b611d7b8185611d55565b9350611d8683611942565b8060005b83811015611db7578151611d9e888261196b565b9750611da983611983565b925050600181019050611d8a565b5085935050505092915050565b6000608083016000830151611ddc6000860182611b79565b5060208301518482036020860152611df48282611b99565b91505060408301518482036040860152611e0e8282611b99565b91505060608301518482036060860152611e288282611d66565b9150508091505092915050565b6000611e418383611dc4565b905092915050565b6000602082019050919050565b6000611e6182611d29565b611e6b8185611d34565b935083602082028501611e7d85611d45565b8060005b85811015611eb95784840389528151611e9a8582611e35565b9450611ea583611e49565b925060208a01995050600181019050611e81565b50829750879550505050505092915050565b60006020820190508181036000830152611ee58184611e56565b905092915050565b6000602082019050611f026000830184611a93565b92915050565b600080fd5b600080fd5b7f4e487b7100000000000000000000000000000000000000000000000000000000600052604160045260246000fd5b611f4a826118dc565b810181811067ffffffffffffffff82111715611f6957611f68611f12565b5b80604052505050565b6000611f7c6117f7565b9050611f888282611f41565b919050565b600067ffffffffffffffff821115611fa857611fa7611f12565b5b611fb1826118dc565b9050602081019050919050565b82818337600083830152505050565b6000611fe0611fdb84611f8d565b611f72565b905082815260208101848484011115611ffc57611ffb611f0d565b5b612007848285611fbe565b509392505050565b600082601f83011261202457612023611f08565b5b8135612034848260208601611fcd565b91505092915050565b6000806040838503121561205457612053611801565b5b600083013567ffffffffffffffff81111561207257612071611806565b5b61207e8582860161200f565b925050602083013567ffffffffffffffff81111561209f5761209e611806565b5b6120ab8582860161200f565b9150509250929050565b6120be81611b67565b82525050565b60006060820190506120d960008301866120b5565b81810360208301526120eb81856118ed565b905081810360408301526120ff81846118ed565b9050949350505050565b600060c08201905061211e6000830189611a93565b61212b60208301886120b5565b818103604083015261213d81876118ed565b9050818103606083015261215181866118ed565b90506121606080830185611a93565b61216d60a0830184611abd565b979650505050505050565b60008060006060848603121561219157612190611801565b5b600084013567ffffffffffffffff8111156121af576121ae611806565b5b6121bb8682870161200f565b935050602084013567ffffffffffffffff8111156121dc576121db611806565b5b6121e88682870161200f565b92505060406121f986828701611a51565b9150509250925092565b7f56656e646f72206e6f7420666f756e6400000000000000000000000000000000600082015250565b60006122396010836118a1565b915061224482612203565b602082019050919050565b600060208201905081810360008301526122688161222c565b9050919050565b7f4e487b7100000000000000000000000000000000000000000000000000000000600052601160045260246000fd5b60006122a982611952565b91506122b483611952565b92508282039050818111156122cc576122cb61226f565b5b92915050565b7f4e487b7100000000000000000000000000000000000000000000000000000000600052603260045260246000fd5b7f4e487b7100000000000000000000000000000000000000000000000000000000600052602260045260246000fd5b6000600282049050600182168061234857607f821691505b60208210810361235b5761235a612301565b5b50919050565b7f4974656d206e6f7420666f756e64000000000000000000000000000000000000600082015250565b6000612397600e836118a1565b91506123a282612361565b602082019050919050565b600060208201905081810360008301526123c68161238a565b9050919050565b7f4e616d6520697320726571756972656400000000000000000000000000000000600082015250565b60006124036010836118a1565b915061240e826123cd565b602082019050919050565b60006020820190508181036000830152612432816123f6565b9050919050565b7f456d61696c206973207265717569726564000000000000000000000000000000600082015250565b600061246f6011836118a1565b915061247a82612439565b602082019050919050565b6000602082019050818103600083015261249e81612462565b9050919050565b7f56656e646f7220616c7265616479207265676973746572656400000000000000600082015250565b60006124db6019836118a1565b91506124e6826124a5565b602082019050919050565b6000602082019050818103600083015261250a816124ce565b9050919050565b600061251c82611952565b91507fffffffffffffffffffffffffffffffffffffffffffffffffffffffffffffffff820361254e5761254d61226f565b5b600182019050919050565b60008190508160005260206000209050919050565b60006020601f8301049050919050565b600082821b905092915050565b6000600883026125bb7fffffffffffffffffffffffffffffffffffffffffffffffffffffffffffffffff8261257e565b6125c5868361257e565b95508019841693508086168417925050509392505050565b6000819050919050565b60006126026125fd6125f884611952565b6125dd565b611952565b9050919050565b6000819050919050565b61261c836125e7565b61263061262882612609565b84845461258b565b825550505050565b600090565b612645612638565b612650818484612613565b505050565b5b818110156126745761266960008261263d565b600181019050612656565b5050565b601f8211156126b95761268a81612559565b6126938461256e565b810160208510156126a2578190505b6126b66126ae8561256e565b830182612655565b50505b505050565b600082821c905092915050565b60006126dc600019846008026126be565b1980831691505092915050565b60006126f583836126cb565b9150826002028217905092915050565b61270e82611896565b67ffffffffffffffff81111561272757612726611f12565b5b6127318254612330565b61273c828285612678565b600060209050601f83116001811461276f576000841561275d578287015190505b61276785826126e9565b8655506127cf565b601f19841661277d86612559565b60005b828110156127a557848901518255600182019150602085019450602081019050612780565b868310156127c257848901516127be601f8916826126cb565b8355505b6001600288020188555050505b505050505050565b60006060820190506127ec6000830186611aa2565b81810360208301526127fe81856118ed565b9050818103604083015261281281846118ed565b9050949350505050565b7f4f6e6c7920726567697374657265642076656e646f72732063616e207065726660008201527f6f726d207468697320616374696f6e0000000000000000000000000000000000602082015250565b6000612878602f836118a1565b91506128838261281c565b604082019050919050565b600060208201905081810360008301526128a78161286b565b9050919050565b7f4469736372697074696f6e206973207265717569726564000000000000000000600082015250565b60006128e46017836118a1565b91506128ef826128ae565b602082019050919050565b60006020820190508181036000830152612913816128d7565b9050919050565b7f416d6f756e6e7420697320726571756972656400000000000000000000000000600082015250565b60006129506013836118a1565b915061295b8261291a565b602082019050919050565b6000602082019050818103600083015261297f81612943565b9050919050565b600061299182611952565b915061299c83611952565b92508282026129aa81611952565b915082820484148315176129c1576129c061226f565b5b5092915050565b60006080820190506129dd6000830187611a93565b6129ea6020830186611aa2565b81810360408301526129fc81856118ed565b9050612a0b6060830184611a93565b95945050505050565b7f496e76616c6964206974656d2049440000000000000000000000000000000000600082015250565b6000612a4a600f836118a1565b9150612a5582612a14565b602082019050919050565b60006020820190508181036000830152612a7981612a3d565b9050919050565b7f4974656d20697320616c726561647920736f6c64000000000000000000000000600082015250565b6000612ab66014836118a1565b9150612ac182612a80565b602082019050919050565b60006020820190508181036000830152612ae581612aa9565b9050919050565b7f496e636f72726563742076616c75652073656e74000000000000000000000000600082015250565b6000612b226014836118a1565b9150612b2d82612aec565b602082019050919050565b60006020820190508181036000830152612b5181612b15565b9050919050565b6000606082019050612b6d6000830186611a93565b612b7a6020830185611aa2565b612b876040830184611a93565b94935050505056fea26469706673582212208afb4a1b0b089f9d95c7524c49a2e6cab1c48f47695aea2f17904707532c27b964736f6c63430008180033",
  "linkReferences": {},
  "deployedLinkReferences": {}
}